{
  "contractName": "terraSanitas",
  "abi": [
    {
      "anonymous": false,
      "inputs": [
        {
          "indexed": false,
          "internalType": "address",
          "name": "user",
          "type": "address"
        }
      ],
      "name": "ValidUser",
      "type": "event"
    },
    {
      "inputs": [
        {
          "internalType": "uint256",
          "name": "",
          "type": "uint256"
        }
      ],
      "name": "participantslist",
      "outputs": [
        {
          "internalType": "address",
          "name": "",
          "type": "address"
        }
      ],
      "stateMutability": "view",
      "type": "function",
      "constant": true
    },
    {
      "inputs": [],
      "name": "register",
      "outputs": [],
      "stateMutability": "nonpayable",
      "type": "function"
    },
    {
      "inputs": [],
      "name": "viewParticipants",
      "outputs": [
        {
          "internalType": "address[]",
          "name": "",
          "type": "address[]"
        }
      ],
      "stateMutability": "view",
      "type": "function",
      "constant": true
    },
    {
      "inputs": [],
      "name": "deregister",
      "outputs": [],
      "stateMutability": "nonpayable",
      "type": "function"
    },
    {
      "inputs": [
        {
          "internalType": "address",
          "name": "user",
          "type": "address"
        }
      ],
      "name": "request",
      "outputs": [],
      "stateMutability": "nonpayable",
      "type": "function"
    },
    {
      "inputs": [
        {
          "internalType": "address",
          "name": "user",
          "type": "address"
        }
      ],
      "name": "upload",
      "outputs": [],
      "stateMutability": "nonpayable",
      "type": "function"
    }
  ],
  "bytecode": "0x608060405234801561001057600080fd5b50610abe806100206000396000f3fe608060405234801561001057600080fd5b50600436106100625760003560e01c80631aa3a0081461006757806327c78c421461007157806364345c561461008d578063724c07dc146100a9578063aff5edb1146100d9578063f1fa04a4146100e3575b600080fd5b61006f610101565b005b61008b6004803603810190610086919061072d565b6101d9565b005b6100a760048036038101906100a2919061072d565b61032f565b005b6100c360048036038101906100be9190610790565b610485565b6040516100d091906107cc565b60405180910390f35b6100e16104c4565b005b6100eb61063c565b6040516100f891906108a5565b60405180910390f35b6040518060200160405280600115158152506000803373ffffffffffffffffffffffffffffffffffffffff1673ffffffffffffffffffffffffffffffffffffffff16815260200190815260200160002060008201518160000160006101000a81548160ff0219169083151502179055509050506001339080600181540180825580915050600190039060005260206000200160009091909190916101000a81548173ffffffffffffffffffffffffffffffffffffffff021916908373ffffffffffffffffffffffffffffffffffffffff160217905550565b6000803373ffffffffffffffffffffffffffffffffffffffff1673ffffffffffffffffffffffffffffffffffffffff16815260200190815260200160002060000160009054906101000a900460ff16610267576040517f08c379a000000000000000000000000000000000000000000000000000000000815260040161025e90610924565b60405180910390fd5b6000808273ffffffffffffffffffffffffffffffffffffffff1673ffffffffffffffffffffffffffffffffffffffff16815260200190815260200160002060000160009054906101000a900460ff166102f5576040517f08c379a00000000000000000000000000000000000000000000000000000000081526004016102ec90610990565b60405180910390fd5b7fd1fcd4f71c979af1531443c60c8729f51deae008e58be9cc461d4f3d4eedcf778160405161032491906107cc565b60405180910390a150565b6000803373ffffffffffffffffffffffffffffffffffffffff1673ffffffffffffffffffffffffffffffffffffffff16815260200190815260200160002060000160009054906101000a900460ff166103bd576040517f08c379a00000000000000000000000000000000000000000000000000000000081526004016103b490610924565b60405180910390fd5b6000803373ffffffffffffffffffffffffffffffffffffffff1673ffffffffffffffffffffffffffffffffffffffff16815260200190815260200160002060000160009054906101000a900460ff1661044b576040517f08c379a0000000000000000000000000000000000000000000000000000000008152600401610442906109fc565b60405180910390fd5b7fd1fcd4f71c979af1531443c60c8729f51deae008e58be9cc461d4f3d4eedcf778160405161047a91906107cc565b60405180910390a150565b6001818154811061049557600080fd5b906000526020600020016000915054906101000a900473ffffffffffffffffffffffffffffffffffffffff1681565b6000803373ffffffffffffffffffffffffffffffffffffffff1673ffffffffffffffffffffffffffffffffffffffff16815260200190815260200160002060000160009054906101000a900460ff16610552576040517f08c379a000000000000000000000000000000000000000000000000000000000815260040161054990610924565b60405180910390fd5b6000803373ffffffffffffffffffffffffffffffffffffffff1673ffffffffffffffffffffffffffffffffffffffff16815260200190815260200160002060000160009054906101000a900460ff166105e0576040517f08c379a00000000000000000000000000000000000000000000000000000000081526004016105d790610a68565b60405180910390fd5b60008060003373ffffffffffffffffffffffffffffffffffffffff1673ffffffffffffffffffffffffffffffffffffffff16815260200190815260200160002060000160006101000a81548160ff021916908315150217905550565b606060018054806020026020016040519081016040528092919081815260200182805480156106c057602002820191906000526020600020905b8160009054906101000a900473ffffffffffffffffffffffffffffffffffffffff1673ffffffffffffffffffffffffffffffffffffffff1681526020019060010190808311610676575b5050505050905090565b600080fd5b600073ffffffffffffffffffffffffffffffffffffffff82169050919050565b60006106fa826106cf565b9050919050565b61070a816106ef565b811461071557600080fd5b50565b60008135905061072781610701565b92915050565b600060208284031215610743576107426106ca565b5b600061075184828501610718565b91505092915050565b6000819050919050565b61076d8161075a565b811461077857600080fd5b50565b60008135905061078a81610764565b92915050565b6000602082840312156107a6576107a56106ca565b5b60006107b48482850161077b565b91505092915050565b6107c6816106ef565b82525050565b60006020820190506107e160008301846107bd565b92915050565b600081519050919050565b600082825260208201905092915050565b6000819050602082019050919050565b61081c816106ef565b82525050565b600061082e8383610813565b60208301905092915050565b6000602082019050919050565b6000610852826107e7565b61085c81856107f2565b935061086783610803565b8060005b8381101561089857815161087f8882610822565b975061088a8361083a565b92505060018101905061086b565b5085935050505092915050565b600060208201905081810360008301526108bf8184610847565b905092915050565b600082825260208201905092915050565b7f4e6f7420612052656769737465726564205061727469636970616e7400000000600082015250565b600061090e601c836108c7565b9150610919826108d8565b602082019050919050565b6000602082019050818103600083015261093d81610901565b9050919050565b7f7375636365737366756c6c792072657175657374656400000000000000000000600082015250565b600061097a6016836108c7565b915061098582610944565b602082019050919050565b600060208201905081810360008301526109a98161096d565b9050919050565b7f7375636365737366756c6c792075706c6f616465640000000000000000000000600082015250565b60006109e66015836108c7565b91506109f1826109b0565b602082019050919050565b60006020820190508181036000830152610a15816109d9565b9050919050565b7f416c726561647920646572656769737465726564000000000000000000000000600082015250565b6000610a526014836108c7565b9150610a5d82610a1c565b602082019050919050565b60006020820190508181036000830152610a8181610a45565b905091905056fea26469706673582212209b0c629f43b26359c2a26a38ee1390e68218f43a7a22763226249a1ca45bc3b264736f6c63430008110033",
  "immutableReferences": {},
  "source": "//SPDX-License-Identifier: UNLICENSED\r\npragma solidity ^0.8.0;\r\ncontract terraSanitas {\r\n\r\n    struct Participant {\r\n        bool validUser;\r\n    }\r\n    //event\r\n    event ValidUser(address user);\r\n    mapping(address => Participant) participants; \r\n    address[] public participantslist;\r\n    // modifiers\r\n    \r\n    modifier validParticipant(){\r\n        require(participants[msg.sender].validUser, \"Not a Registered Participant\");\r\n        _;\r\n    }\r\n    \r\n    //address participant\r\n\r\n    function register() public{\r\n        participants[msg.sender] = Participant(true);\r\n        participantslist.push(msg.sender);\r\n    }\r\n\r\n    function viewParticipants() public view returns(address [] memory){\r\n        return participantslist;\r\n    }\r\n\r\n    function deregister() public validParticipant{\r\n        require(participants[msg.sender].validUser, \"Already deregistered\");\r\n        participants[msg.sender].validUser = false;\r\n    }\r\n\r\n    function request(address user) public validParticipant{\r\n        require(participants[user].validUser, \"successfully requested\");\r\n        // emits user validity to backend to give the go ahead to send the files\r\n        emit ValidUser(user);\r\n        //calls token smart contract to send payment\r\n    }\r\n\r\n    function upload(address user) public validParticipant{\r\n        require(participants[msg.sender].validUser, \"successfully uploaded\");\r\n         // emits user validity to backend to give the go ahead to upload the files\r\n        emit ValidUser(user);\r\n    }\r\n\r\n}",
  "sourcePath": "C:\\Users\\sande\\OneDrive\\Desktop\\TerraSanitas\\terra-sanitas\\truffle\\contracts\\ts.sol",
  "compiler": {
    "name": "solc",
    "version": "0.8.17+commit.8df45f5f.Emscripten.clang"
  },
  "schemaVersion": "3.4.10",
  "updatedAt": "2022-11-16T00:00:01.330Z",
  "networkType": "ethereum",
  "devdoc": {
    "kind": "dev",
    "methods": {},
    "version": 1
  },
  "userdoc": {
    "kind": "user",
    "methods": {},
    "version": 1
  }
}