{
  "contractName": "terraSanitas",
  "abi": [
    {
      "anonymous": false,
      "inputs": [
        {
          "indexed": false,
          "internalType": "address",
          "name": "user",
          "type": "address"
        }
      ],
      "name": "ValidUser",
      "type": "event"
    },
    {
      "inputs": [
        {
          "internalType": "uint256",
          "name": "",
          "type": "uint256"
        }
      ],
      "name": "participantslist",
      "outputs": [
        {
          "internalType": "address",
          "name": "",
          "type": "address"
        }
      ],
      "stateMutability": "view",
      "type": "function",
      "constant": true
    },
    {
      "inputs": [],
      "name": "register",
      "outputs": [],
      "stateMutability": "nonpayable",
      "type": "function"
    },
    {
      "inputs": [],
      "name": "viewParticipants",
      "outputs": [
        {
          "internalType": "address[]",
          "name": "",
          "type": "address[]"
        }
      ],
      "stateMutability": "view",
      "type": "function",
      "constant": true
    },
    {
      "inputs": [],
      "name": "deregister",
      "outputs": [],
      "stateMutability": "nonpayable",
      "type": "function"
    },
    {
      "inputs": [
        {
          "internalType": "address",
          "name": "user",
          "type": "address"
        }
      ],
      "name": "request",
      "outputs": [],
      "stateMutability": "nonpayable",
      "type": "function"
    },
    {
      "inputs": [
        {
          "internalType": "address",
          "name": "user",
          "type": "address"
        }
      ],
      "name": "upload",
      "outputs": [],
      "stateMutability": "nonpayable",
      "type": "function"
    }
  ],
  "bytecode": "0x608060405234801561001057600080fd5b50610ac6806100206000396000f3fe608060405234801561001057600080fd5b50600436106100625760003560e01c80631aa3a0081461006757806327c78c421461007157806364345c561461008d578063724c07dc146100a9578063aff5edb1146100d9578063f1fa04a4146100e3575b600080fd5b61006f610101565b005b61008b60048036038101906100869190610735565b6101da565b005b6100a760048036038101906100a29190610735565b610332565b005b6100c360048036038101906100be9190610798565b61048a565b6040516100d091906107d4565b60405180910390f35b6100e16104c9565b005b6100eb610644565b6040516100f891906108ad565b60405180910390f35b604051806020016040528060011515815250600160003373ffffffffffffffffffffffffffffffffffffffff1673ffffffffffffffffffffffffffffffffffffffff16815260200190815260200160002060008201518160000160006101000a81548160ff0219169083151502179055509050506002339080600181540180825580915050600190039060005260206000200160009091909190916101000a81548173ffffffffffffffffffffffffffffffffffffffff021916908373ffffffffffffffffffffffffffffffffffffffff160217905550565b600160003373ffffffffffffffffffffffffffffffffffffffff1673ffffffffffffffffffffffffffffffffffffffff16815260200190815260200160002060000160009054906101000a900460ff16610269576040517f08c379a00000000000000000000000000000000000000000000000000000000081526004016102609061092c565b60405180910390fd5b600160008273ffffffffffffffffffffffffffffffffffffffff1673ffffffffffffffffffffffffffffffffffffffff16815260200190815260200160002060000160009054906101000a900460ff166102f8576040517f08c379a00000000000000000000000000000000000000000000000000000000081526004016102ef90610998565b60405180910390fd5b7fd1fcd4f71c979af1531443c60c8729f51deae008e58be9cc461d4f3d4eedcf778160405161032791906107d4565b60405180910390a150565b600160003373ffffffffffffffffffffffffffffffffffffffff1673ffffffffffffffffffffffffffffffffffffffff16815260200190815260200160002060000160009054906101000a900460ff166103c1576040517f08c379a00000000000000000000000000000000000000000000000000000000081526004016103b89061092c565b60405180910390fd5b600160003373ffffffffffffffffffffffffffffffffffffffff1673ffffffffffffffffffffffffffffffffffffffff16815260200190815260200160002060000160009054906101000a900460ff16610450576040517f08c379a000000000000000000000000000000000000000000000000000000000815260040161044790610a04565b60405180910390fd5b7fd1fcd4f71c979af1531443c60c8729f51deae008e58be9cc461d4f3d4eedcf778160405161047f91906107d4565b60405180910390a150565b6002818154811061049a57600080fd5b906000526020600020016000915054906101000a900473ffffffffffffffffffffffffffffffffffffffff1681565b600160003373ffffffffffffffffffffffffffffffffffffffff1673ffffffffffffffffffffffffffffffffffffffff16815260200190815260200160002060000160009054906101000a900460ff16610558576040517f08c379a000000000000000000000000000000000000000000000000000000000815260040161054f9061092c565b60405180910390fd5b600160003373ffffffffffffffffffffffffffffffffffffffff1673ffffffffffffffffffffffffffffffffffffffff16815260200190815260200160002060000160009054906101000a900460ff166105e7576040517f08c379a00000000000000000000000000000000000000000000000000000000081526004016105de90610a70565b60405180910390fd5b6000600160003373ffffffffffffffffffffffffffffffffffffffff1673ffffffffffffffffffffffffffffffffffffffff16815260200190815260200160002060000160006101000a81548160ff021916908315150217905550565b606060028054806020026020016040519081016040528092919081815260200182805480156106c857602002820191906000526020600020905b8160009054906101000a900473ffffffffffffffffffffffffffffffffffffffff1673ffffffffffffffffffffffffffffffffffffffff168152602001906001019080831161067e575b5050505050905090565b600080fd5b600073ffffffffffffffffffffffffffffffffffffffff82169050919050565b6000610702826106d7565b9050919050565b610712816106f7565b811461071d57600080fd5b50565b60008135905061072f81610709565b92915050565b60006020828403121561074b5761074a6106d2565b5b600061075984828501610720565b91505092915050565b6000819050919050565b61077581610762565b811461078057600080fd5b50565b6000813590506107928161076c565b92915050565b6000602082840312156107ae576107ad6106d2565b5b60006107bc84828501610783565b91505092915050565b6107ce816106f7565b82525050565b60006020820190506107e960008301846107c5565b92915050565b600081519050919050565b600082825260208201905092915050565b6000819050602082019050919050565b610824816106f7565b82525050565b6000610836838361081b565b60208301905092915050565b6000602082019050919050565b600061085a826107ef565b61086481856107fa565b935061086f8361080b565b8060005b838110156108a0578151610887888261082a565b975061089283610842565b925050600181019050610873565b5085935050505092915050565b600060208201905081810360008301526108c7818461084f565b905092915050565b600082825260208201905092915050565b7f4e6f7420612052656769737465726564205061727469636970616e7400000000600082015250565b6000610916601c836108cf565b9150610921826108e0565b602082019050919050565b6000602082019050818103600083015261094581610909565b9050919050565b7f7375636365737366756c6c792072657175657374656400000000000000000000600082015250565b60006109826016836108cf565b915061098d8261094c565b602082019050919050565b600060208201905081810360008301526109b181610975565b9050919050565b7f7375636365737366756c6c792075706c6f616465640000000000000000000000600082015250565b60006109ee6015836108cf565b91506109f9826109b8565b602082019050919050565b60006020820190508181036000830152610a1d816109e1565b9050919050565b7f416c726561647920646572656769737465726564000000000000000000000000600082015250565b6000610a5a6014836108cf565b9150610a6582610a24565b602082019050919050565b60006020820190508181036000830152610a8981610a4d565b905091905056fea2646970667358221220de472972749224ecb72ce0919a2b957cc8ced328448bad4e96420a7ef85d4df364736f6c63430008110033",
  "immutableReferences": {},
  "source": "//SPDX-License-Identifier: UNLICENSED\r\npragma solidity ^0.8.0;\r\ncontract terraSanitas {\r\n\r\n    struct Participant {\r\n        bool validUser;\r\n    }\r\n    //event\r\n    event ValidUser(address user);\r\n    address owner;\r\n    mapping(address => Participant) participants; \r\n    address[] public participantslist;\r\n    // modifiers\r\n\r\n    modifier onlyOwner() \r\n     {require(msg.sender == owner);\r\n      _;\r\n     }\r\n    \r\n    modifier validParticipant(){\r\n        require(participants[msg.sender].validUser, \"Not a Registered Participant\");\r\n        _;\r\n    }\r\n    \r\n    //address participant\r\n\r\n    function register() public{\r\n        //require(msg.sender == owner,\"no permission to add user\");\r\n        participants[msg.sender] = Participant(true);\r\n        participantslist.push(msg.sender);\r\n    }\r\n\r\n    function viewParticipants() public view returns(address [] memory){\r\n        return participantslist;\r\n    }\r\n\r\n    function deregister() public validParticipant{\r\n        require(participants[msg.sender].validUser, \"Already deregistered\");\r\n        participants[msg.sender].validUser = false;\r\n    }\r\n\r\n    function request(address user) public validParticipant{\r\n        require(participants[user].validUser, \"successfully requested\");\r\n        // emits user validity to backend to give the go ahead to send the files\r\n        emit ValidUser(user);\r\n        //calls token smart contract to send payment\r\n    }\r\n\r\n    function upload(address user) public validParticipant{\r\n        require(participants[msg.sender].validUser, \"successfully uploaded\");\r\n         // emits user validity to backend to give the go ahead to upload the files\r\n        emit ValidUser(user);\r\n    }\r\n\r\n}",
  "sourcePath": "C:\\Users\\sande\\OneDrive\\Desktop\\TerraSanitas\\terra-sanitas\\truffle\\contracts\\ts.sol",
  "compiler": {
    "name": "solc",
    "version": "0.8.17+commit.8df45f5f.Emscripten.clang"
  },
  "schemaVersion": "3.4.10",
  "updatedAt": "2022-11-13T22:45:06.663Z",
  "networkType": "ethereum",
  "devdoc": {
    "kind": "dev",
    "methods": {},
    "version": 1
  },
  "userdoc": {
    "kind": "user",
    "methods": {},
    "version": 1
  }
}