{
  "contractName": "terraSanitas",
  "abi": [
    {
      "anonymous": false,
      "inputs": [
        {
          "indexed": false,
          "internalType": "address",
          "name": "user",
          "type": "address"
        }
      ],
      "name": "ValidUser",
      "type": "event"
    },
    {
      "inputs": [
        {
          "internalType": "uint256",
          "name": "",
          "type": "uint256"
        }
      ],
      "name": "participantslist",
      "outputs": [
        {
          "internalType": "address",
          "name": "",
          "type": "address"
        }
      ],
      "stateMutability": "view",
      "type": "function",
      "constant": true
    },
    {
      "inputs": [],
      "name": "register",
      "outputs": [],
      "stateMutability": "nonpayable",
      "type": "function"
    },
    {
      "inputs": [],
      "name": "viewParticipants",
      "outputs": [
        {
          "internalType": "address[]",
          "name": "",
          "type": "address[]"
        }
      ],
      "stateMutability": "view",
      "type": "function",
      "constant": true
    },
    {
      "inputs": [],
      "name": "deregister",
      "outputs": [],
      "stateMutability": "nonpayable",
      "type": "function"
    },
    {
      "inputs": [],
      "name": "request",
      "outputs": [],
      "stateMutability": "nonpayable",
      "type": "function"
    },
    {
      "inputs": [],
      "name": "upload",
      "outputs": [],
      "stateMutability": "nonpayable",
      "type": "function"
    }
  ],
  "bytecode": "0x608060405234801561001057600080fd5b50610aa7806100206000396000f3fe608060405234801561001057600080fd5b50600436106100625760003560e01c80631aa3a00814610067578063338cdca1146100715780633f749da51461007b578063724c07dc14610085578063aff5edb1146100b5578063f1fa04a4146100bf575b600080fd5b61006f6100dd565b005b610079610216565b005b61008361036d565b005b61009f600480360381019061009a9190610747565b6104c4565b6040516100ac91906107b5565b60405180910390f35b6100bd610503565b005b6100c761067e565b6040516100d4919061088e565b60405180910390f35b60011515600160003373ffffffffffffffffffffffffffffffffffffffff1673ffffffffffffffffffffffffffffffffffffffff16815260200190815260200160002060000160009054906101000a900460ff1615150361013d57600080fd5b604051806020016040528060011515815250600160003373ffffffffffffffffffffffffffffffffffffffff1673ffffffffffffffffffffffffffffffffffffffff16815260200190815260200160002060008201518160000160006101000a81548160ff0219169083151502179055509050506002339080600181540180825580915050600190039060005260206000200160009091909190916101000a81548173ffffffffffffffffffffffffffffffffffffffff021916908373ffffffffffffffffffffffffffffffffffffffff160217905550565b600160003373ffffffffffffffffffffffffffffffffffffffff1673ffffffffffffffffffffffffffffffffffffffff16815260200190815260200160002060000160009054906101000a900460ff166102a5576040517f08c379a000000000000000000000000000000000000000000000000000000000815260040161029c9061090d565b60405180910390fd5b600160003373ffffffffffffffffffffffffffffffffffffffff1673ffffffffffffffffffffffffffffffffffffffff16815260200190815260200160002060000160009054906101000a900460ff16610334576040517f08c379a000000000000000000000000000000000000000000000000000000000815260040161032b90610979565b60405180910390fd5b7fd1fcd4f71c979af1531443c60c8729f51deae008e58be9cc461d4f3d4eedcf773360405161036391906107b5565b60405180910390a1565b600160003373ffffffffffffffffffffffffffffffffffffffff1673ffffffffffffffffffffffffffffffffffffffff16815260200190815260200160002060000160009054906101000a900460ff166103fc576040517f08c379a00000000000000000000000000000000000000000000000000000000081526004016103f39061090d565b60405180910390fd5b600160003373ffffffffffffffffffffffffffffffffffffffff1673ffffffffffffffffffffffffffffffffffffffff16815260200190815260200160002060000160009054906101000a900460ff1661048b576040517f08c379a0000000000000000000000000000000000000000000000000000000008152600401610482906109e5565b60405180910390fd5b7fd1fcd4f71c979af1531443c60c8729f51deae008e58be9cc461d4f3d4eedcf77336040516104ba91906107b5565b60405180910390a1565b600281815481106104d457600080fd5b906000526020600020016000915054906101000a900473ffffffffffffffffffffffffffffffffffffffff1681565b600160003373ffffffffffffffffffffffffffffffffffffffff1673ffffffffffffffffffffffffffffffffffffffff16815260200190815260200160002060000160009054906101000a900460ff16610592576040517f08c379a00000000000000000000000000000000000000000000000000000000081526004016105899061090d565b60405180910390fd5b600160003373ffffffffffffffffffffffffffffffffffffffff1673ffffffffffffffffffffffffffffffffffffffff16815260200190815260200160002060000160009054906101000a900460ff16610621576040517f08c379a000000000000000000000000000000000000000000000000000000000815260040161061890610a51565b60405180910390fd5b6000600160003373ffffffffffffffffffffffffffffffffffffffff1673ffffffffffffffffffffffffffffffffffffffff16815260200190815260200160002060000160006101000a81548160ff021916908315150217905550565b6060600280548060200260200160405190810160405280929190818152602001828054801561070257602002820191906000526020600020905b8160009054906101000a900473ffffffffffffffffffffffffffffffffffffffff1673ffffffffffffffffffffffffffffffffffffffff16815260200190600101908083116106b8575b5050505050905090565b600080fd5b6000819050919050565b61072481610711565b811461072f57600080fd5b50565b6000813590506107418161071b565b92915050565b60006020828403121561075d5761075c61070c565b5b600061076b84828501610732565b91505092915050565b600073ffffffffffffffffffffffffffffffffffffffff82169050919050565b600061079f82610774565b9050919050565b6107af81610794565b82525050565b60006020820190506107ca60008301846107a6565b92915050565b600081519050919050565b600082825260208201905092915050565b6000819050602082019050919050565b61080581610794565b82525050565b600061081783836107fc565b60208301905092915050565b6000602082019050919050565b600061083b826107d0565b61084581856107db565b9350610850836107ec565b8060005b83811015610881578151610868888261080b565b975061087383610823565b925050600181019050610854565b5085935050505092915050565b600060208201905081810360008301526108a88184610830565b905092915050565b600082825260208201905092915050565b7f4e6f7420612052656769737465726564205061727469636970616e7400000000600082015250565b60006108f7601c836108b0565b9150610902826108c1565b602082019050919050565b60006020820190508181036000830152610926816108ea565b9050919050565b7f7375636365737366756c6c792072657175657374656400000000000000000000600082015250565b60006109636016836108b0565b915061096e8261092d565b602082019050919050565b6000602082019050818103600083015261099281610956565b9050919050565b7f7375636365737366756c6c792075706c6f616465640000000000000000000000600082015250565b60006109cf6015836108b0565b91506109da82610999565b602082019050919050565b600060208201905081810360008301526109fe816109c2565b9050919050565b7f416c726561647920646572656769737465726564000000000000000000000000600082015250565b6000610a3b6014836108b0565b9150610a4682610a05565b602082019050919050565b60006020820190508181036000830152610a6a81610a2e565b905091905056fea26469706673582212208d5ddcddf92ea961beafff114118506b668f12e2aa612d0c3e46335ffe785c5d64736f6c63430008110033",
  "immutableReferences": {},
  "source": "//SPDX-License-Identifier: UNLICENSED\r\npragma solidity ^0.8.0;\r\ncontract terraSanitas {\r\n\r\n    struct Participant {\r\n        bool validUser;\r\n    }\r\n    \r\n    event ValidUser(address user);\r\n    address Authority;\r\n    mapping(address => Participant) participants; \r\n    address[] public participantslist;\r\n    \r\n    \r\n    modifier validParticipant(){\r\n        require(participants[msg.sender].validUser, \"Not a Registered Participant\");\r\n        _;\r\n    }\r\n    \r\n    //OnlyAuthority Modifer and add address as parameter\r\n    function register() public{\r\n        require(participants[msg.sender].validUser != true);\r\n        //require(msg.sender == Authority, \"No permission to register user\");\r\n        participants[msg.sender] = Participant(true);\r\n        participantslist.push(msg.sender);\r\n    }\r\n\r\n    function viewParticipants() public view returns(address [] memory){\r\n        return participantslist;\r\n    }\r\n\r\n    function deregister() public validParticipant{\r\n        require(participants[msg.sender].validUser, \"Already deregistered\");\r\n        participants[msg.sender].validUser = false;\r\n    }\r\n\r\n    function request() public validParticipant{\r\n        require(participants[msg.sender].validUser, \"successfully requested\");\r\n        // emits user validity to backendcd to give the go ahead to send the files\r\n        emit ValidUser(msg.sender);\r\n        //calls token smart contract to send payment\r\n    }\r\n\r\n    function upload() public validParticipant{\r\n        require(participants[msg.sender].validUser, \"successfully uploaded\");\r\n         // emits user validity to backend to give the go ahead to upload the files\r\n        emit ValidUser(msg.sender);\r\n    }\r\n\r\n}",
  "sourcePath": "C:\\Users\\sande\\OneDrive\\Desktop\\TerraSanitas\\TerraSanitas\\terra-sanitas\\truffle\\contracts\\ts.sol",
  "compiler": {
    "name": "solc",
    "version": "0.8.17+commit.8df45f5f.Emscripten.clang"
  },
  "schemaVersion": "3.4.11",
  "updatedAt": "2022-12-06T17:54:06.365Z",
  "networkType": "ethereum",
  "devdoc": {
    "kind": "dev",
    "methods": {},
    "version": 1
  },
  "userdoc": {
    "kind": "user",
    "methods": {},
    "version": 1
  }
}